:100000000C945D000C9485000C9485000C94850084
:100010000C9485000C9485000C9485000C9485004C
:100020000C9485000C9485000C9485000C9485003C
:100030000C9485000C9485000C9485000C9485002C
:100040000C9498030C9485000C9466030C94400364
:100050000C9485000C9485000C9485000C9485000C
:100060000C9485000C94850000000008000201003B
:100070000003040700000000000000000000000072
:10008000250028002B0000000000240027002A0083
:10009000040404040404040402020202020203032E
:1000A0000303030301020408102040800102040836
:1000B0001020010204081020010411241FBECFEFFC
:1000C000D8E0DEBFCDBF11E0A0E0B1E0E0EFFBE0A3
:1000D00002C005900D92A432B107D9F722E0A4E244
:1000E000B1E001C01D92A030B207E1F710E0CDE50C
:1000F000D0E004C02197FE010E94BA05CC35D1079B
:10010000C9F70E9495040C94F6050C940000AF9278
:10011000BF92CF92DF92EF92FF920F931F93CF93F4
:10012000DF936C017B018B01040F151FEB015E0156
:10013000AE18BF08C017D10759F06991D601ED91EB
:10014000FC910190F081E02DC6010995892B79F78A
:10015000C501DF91CF911F910F91FF90EF90DF903C
:10016000CF90BF90AF900895FC01538D448D252F03
:1001700030E0842F90E0821B930B541710F0CF9641
:10018000089501970895FC01918D828D981761F073
:10019000A28DAE0FBF2FB11D5D968C91928D9F5F8A
:1001A0009F73928F90E008958FEF9FEF0895FC0169
:1001B000918D828D981731F0828DE80FF11D858D1C
:1001C00090E008958FEF9FEF0895FC01918D228DAF
:1001D000892F90E0805C9F4F821B91098F73992734
:1001E00008958FE291E00E94E50021E0892B09F457
:1001F00020E0822F089580E090E0892B29F00E9472
:10020000F10081110C9400000895FC01A48DA80F49
:10021000B92FB11DA35ABF4F2C91848D90E0019648
:100220008F739927848FA689B7892C93A089B18968
:100230008C91837080648C93938D848D981306C009
:100240000288F389E02D80818F7D80830895EF926D
:10025000FF920F931F93CF93DF93EC0181E0888F80
:100260009B8D8C8D98131AC0E889F989808185FF50
:1002700015C09FB7F894EE89FF896083E889F989F2
:1002800080818370806480839FBF81E090E0DF91F4
:10029000CF911F910F91FF90EF900895F62E0B8D47
:1002A00010E00F5F1F4F0F731127E02E8C8D8E1102
:1002B0000CC00FB607FCFACFE889F989808185FF69
:1002C000F5CFCE010E940501F1CFEB8DEC0FFD2F94
:1002D000F11DE35AFF4FF0829FB7F8940B8FEA8924
:1002E000FB8980818062CFCFCF93DF93EC01888D33
:1002F0008823B9F0AA89BB89E889F9898C9185FDA1
:1003000003C0808186FD0DC00FB607FCF7CF8C912E
:1003100085FFF2CF808185FFEDCFCE010E940501E0
:10032000E9CFDF91CF91089590E0FC01E859FF4FAC
:100330002491FC01EC55FF4F3491FC01E057FF4F35
:10034000E491EE23C9F0222339F0233001F1A8F41F
:10035000213019F1223029F1F0E0EE0FFF1FE458AF
:10036000FF4FA591B4918FB7F894EC91611126C01D
:1003700030953E233C938FBF08952730A9F0283055
:10038000C9F0243049F7809180008F7D03C08091AF
:1003900080008F7780938000DFCF84B58F7784BD16
:1003A000DBCF84B58F7DFBCF8091B0008F778093BA
:1003B000B000D2CF8091B0008F7DF9CF3E2BDACF45
:1003C0000F931F93CF93DF93EC018B018885998561
:1003D000029749F46130710509F436C04CF560E0CC
:1003E0000115110591F188859985049749F401302B
:1003F000110509F451C09CF50115110509F43BC024
:1004000088859985059709F0C5C00A30110508F05F
:10041000C1C0F801E25FFD4F0C94BA0560026A02A8
:1004200078028A02A202A402AA02B402C202C8028C
:100430006230710591F060E003301105A1F68C8502
:100440000E94940160E005C061E08C850E949401E7
:1004500061E08E850E949401C6CF61E0F0CF02304A
:10046000110501F10330110559F661E08C850E94F8
:10047000940160E01CC061E08C850E94940160E002
:100480008E850E94940161E088890E94940160E059
:100490008A890E949401B4CF60E08C850E94940107
:1004A00061E0EECF60E08C850E94940161E08E8572
:1004B0000E94940160E088890E94940161E0E8CF85
:1004C00060E08C850E94940161E08E850E94940119
:1004D00061E009C060E08C850E94940161E08E8536
:1004E0000E94940160E088890E94940160E00DC040
:1004F00060E08C850E94940161E08E850E949401E9
:1005000060E088890E94940161E08A890E949401D8
:1005100061E011C060E08C850E94940161E08E85ED
:100520000E94940160E088890E94940161E08A89B8
:100530000E94940160E08C89DF91CF911F910F910F
:100540000C94940161E0E7CF61E08C850E949401F6
:1005500060E0E5CF61E08C850E94940160E08E85CB
:100560000E94940161E0DFCF61E08C850E949401DC
:1005700060E08E850E94940161E088890E94940168
:1005800060E0D5CF61E08C850E94940160E09DCF52
:1005900060E0F9CFDF91CF911F910F9108950F93F4
:1005A0001F93FC0181E090E0918380833FB7F89432
:1005B00080912B0190912C01A0912D01B0912E01E1
:1005C00026B5A89B05C02F3F19F00196A11DB11DAE
:1005D0003FBFBA2FA92F982F8827820F911DA11DE9
:1005E000B11D42E0880F991FAA1FBB1F4A95D1F782
:1005F00046895789608D718D8C019D01041B150BF7
:10060000260B370B428153816481758104171507CE
:100610002607370758F2868B978BA08FB18F82857C
:1006200093852081318121303105F9F0892BC1F08A
:10063000828593850197938782878285938520851C
:10064000318564E070E02530310511F46AE070E036
:100650000E948705BC01CF011F910F910C94E0010E
:100660008681978193878287E3CF019693878287DC
:10067000268137818217930701F713861286DDCF13
:100680001F920F920FB60F9211242F933F934F9307
:100690005F936F937F938F939F93AF93BF93EF93EA
:1006A000FF938FE291E00E940501FF91EF91BF91CE
:1006B000AF919F918F917F916F915F914F913F91FA
:1006C0002F910F900FBE0F901F9018951F920F92B1
:1006D0000FB60F9211242F938F939F93EF93FF9355
:1006E000E0913F01F09140018081E0914501F0915E
:1006F000460182FD1BC09081809148018F5F8F73FE
:1007000020914901821741F0E0914801F0E0E15D5C
:10071000FE4F958F80934801FF91EF919F918F91AC
:100720002F910F900FBE0F901F9018958081F4CFDE
:100730001F920F920FB60F9211242F933F938F9316
:100740009F93AF93BF938091250190912601A09133
:100750002701B09128013091240123E0230F2D3788
:1007600058F50196A11DB11D209324018093250108
:1007700090932601A0932701B093280180912B012B
:1007800090912C01A0912D01B0912E010196A11DF7
:10079000B11D80932B0190932C01A0932D01B09358
:1007A0002E01BF91AF919F918F913F912F910F900B
:1007B0000FBE0F901F90189526E8230F0296A11DDB
:1007C000B11DD2CF90E0FC01EC55FF4F2491805732
:1007D0009F4FFC018491882399F090E0880F991F26
:1007E000FC01EA57FF4FA591B491FC01E458FF4F7B
:1007F000859194918FB7F894EC91E22BEC938FBF95
:100800000895EF92FF920F931F93CF93DF93EFE240
:10081000F1E01382128288EE93E0A0E0B0E08483DE
:100820009583A683B78384E091E09183808385ECF0
:1008300090E09587848784EC90E09787868780ECAA
:1008400090E0918B808B81EC90E0938B828B82EC9B
:1008500090E0958B848B86EC90E0978B868B118E45
:10086000128E138E148EC6EED1E01B861A86198264
:1008700018821E8A1F8A188E198E84E6E82EF12CA3
:10088000FF82EE8285E090E09D878C8783E090E098
:100890009F878E8704E010E0198B088B82E090E040
:1008A0009B8B8A8B85E00E94E2038E850E94E20387
:1008B00088890E94E2038A890E94E2031D8A1C8AB9
:1008C00019870887CCECD1E01B861A86198218821A
:1008D0001E8A1F8A188E198EFF82EE828BE090E0AE
:1008E0009D878C8789E090E09F878E878AE090E0E3
:1008F000998B888B88E090E09B8B8A8B8BE00E94A1
:10090000E2038E850E94E20388890E94E2038A89BD
:100910000E94E2031D8A1C8A19870887DF91CF9104
:100920001F910F91FF90EF900895789484B58260A5
:1009300084BD84B5816084BD85B5826085BD85B583
:10094000816085BD80916E00816080936E00109201
:10095000810080918100826080938100809181007C
:10096000816080938100809180008160809380000D
:100970008091B10084608093B1008091B00081606B
:100980008093B00080917A00846080937A00809197
:100990007A00826080937A0080917A0081608093EF
:1009A0007A0080917A00806880937A001092C1006A
:1009B000E0913F01F091400182E08083E0913B01B2
:1009C000F0913C011082E0913D01F0913E018FECED
:1009D000808310924701E0914301F091440186E049
:1009E0008083E0914101F0914201808180618083A8
:1009F000E0914101F0914201808188608083E09123
:100A00004101F0914201808180688083E091410141
:100A1000F091420180818F7D808340E150E062E16E
:100A200071E08FE291E00E948700C12C87E8D82E08
:100A300083E9E82E83E0F82E9AE0892E912CA12CF0
:100A4000B12C00E010E08FE291E00E94E500181662
:100A500019066CF58FE291E00E94C30090932A0181
:100A6000809329018134910561F52091EC01309149
:100A7000ED01032E000C440B550BC701B6010E947B
:100A80009B05CA01B901A50194010E949B05209311
:100A9000E8013093E9014093EA015093EB01C0E291
:100AA000D0E086EE91E00E94CF022197D1F70115A8
:100AB000110549F20E94F100882329F20E940000EA
:100AC000C2CF8234910599F72091D2013091D301A0
:100AD000032E000C440B550BC701B6010E949B0569
:100AE000CA01B901A50194010E949B052093CE0182
:100AF0003093CF014093D0015093D101C0E2D0E0B8
:100B00008CEC91E00E94CF022197D1F7D0CF97FBD8
:100B1000072E16F4009407D077FD09D00E94C00577
:100B200007FC05D03EF4909581959F4F08957095F0
:100B300061957F4F0895052E97FB1EF400940E9447
:100B4000B20557FD07D00E94D40507FC03D04EF430
:100B50000C94B20550954095309521953F4F4F4FDD
:100B60005F4F089590958095709561957F4F8F4F59
:100B70009F4F0895EE0FFF1F0590F491E02D09940B
:100B8000AA1BBB1B51E107C0AA1FBB1FA617B707B3
:100B900010F0A61BB70B881F991F5A95A9F78095CF
:100BA0009095BC01CD010895A1E21A2EAA1BBB1B92
:100BB000FD010DC0AA1FBB1FEE1FFF1FA217B30729
:100BC000E407F50720F0A21BB30BE40BF50B661F3F
:100BD000771F881F991F1A9469F760957095809503
:100BE00090959B01AC01BD01CF010895F894FFCF12
:100BF0000000000027018700B4007401E500C30075
:100C0000D70054657374696E67206D6F746F722EB0
:040C10002E2E000084
:00000001FF
